:100000006F00004413000000130000001300000004
:100010001300000013000000130000001300000094
:100020001300000013000000130000001300000084
:08003000130000007300100032
:100038006FF09FFC000000006F00801A6F00D0373F
:1000480000000000000000000000000000000000A8
:100058000000000000000000000000000000000098
:100068006FF09FF9000000006F00102500000000ED
:100078006FF09FF86FF05FF86FF01FF86FF0DFF721
:100088006FF09FF76FF05FF76FF01FF76FF0DFF615
:100098006FF09FF66FF05FF66FF01FF66FF0DFF509
:1000A8006FF09FF56FF05FF56FF01FF56FF0DFF4FD
:1000B8006FF09FF46FF05FF46FF01FF40000000022
:1000C8000000000000000000000000006FF0DFF2F8
:1000D8006FF09FF26FF05FF26FF01FF26FF0DFF1D9
:1000E8006FF09FF16FF05FF16F00B0116FF0DFF00C
:1000F8006FF09FF06FF05FF06FF01FF06FF0DFEFC1
:100108006FF09FEF6FF05FEF6FF01FEF6FF0DFEEB4
:100118006FF09FEE6FF05FEE6FF01FEE6FF0DFEDA8
:1001280000000000000000000000000000000000C7
:080138000000000000000000BF
:100140003D432A876373C3029377F700BDEFADE5A4
:10015000937606FF3D8ABA960CC34CC30CC74CC7B6
:100160004107E36BD7FE11E28280B306C3408A06E3
:100170009702000096966780A6002307B700A306A3
:10018000B7002306B700A305B7002305B700A304F3
:10019000B7002304B700A303B7002303B700A302EB
:1001A000B7002302B700A301B7002301B700A300E3
:1001B000B7002300B700828093F5F50F9396850072
:1001C000D58D93960501D58D61B79396270097023B
:1001D000000096968682E78086FA9680C1171D8F6A
:1001E0003E96E374C3F8A5B773002030011185452E
:1001F000114506CEB9298967938707802312F1003C
:1002000037150140C1473EC64C008947130505809C
:100210003EC4452CF24005618280411122C437144E
:10022000014006C61304048085652285A12E1305AE
:10023000C02BEF10200122858565B9261305C02B40
:10024000EF104000D5B7411122C426C23714014037
:10025000856406C69384048013040480A6852285E1
:1002600025261305C02BEF00F07D2285A685192ECB
:100270001305C02BEF00107DD5B74111054506C60B
:100280003126B70705FA37E700E085073CC7B93FD5
:10029000B7370020B715000037050000938787D1D6
:1002A00009478146130600089385853713056524A1
:1002B000EF00902EB7370020B7150000370500007B
:1002C000938747D10947814613060008938545382F
:1002D0001305A521EF00502CEF00904901A0B7179E
:1002E00002409843B706FFF841111367170098C3FF
:1002F000D84337060200758FD8C39843B706F7FE78
:10030000FD16758F98C39843B706FCFFFD16758FD1
:1003100098C3D843B70681FFFD16758FD8C337073A
:100320009F0098C702C402C69843C166558F98C300
:10033000B7160240130700509C42F18F3EC6A247F9
:1003400085073EC4B24781E7A247E397E7FEB717A8
:1003500002409C431397E7006354070885473EC655
:1003600032478547631CF706B72702409843B70614
:10037000C1FFFD161367070198C39843719B98C38B
:1003800098431367270098C3B7170240D843D8C3D0
:10039000D843D8C3D84313670740D8C3D843758F11
:1003A000D8C3D843B7061D00558FD8C39843B706A6
:1003B0000001558F98C3984393166700E3DD06FE4E
:1003C000D843B7160240719BD8C3D84313672700A0
:1003D000D8C32147DC42B18BE39EE7FE4101828016
:1003E00002C6BDBF79718545114506D622D4492480
:1003F00037140040930730024C083ECA13050480AE
:100400009307F07C3ECC61249307E0122316F100A1
:100410009D472307F100680085473EC8AD2A1305B4
:1004200004808545112E1305048005468545D52C8D
:10043000130504808545C12CB25022544561828049
:10044000970100209381013C17510020130181BBCB
:1004500017150000130585F497050020938585BACC
:100460001386818063FAC5008322050023A055000E
:1004700011059105E3EAC5FE17050020130505B92E
:10048000973500209385C5896377B5002320050043
:100490001105E36DB5FE9302800873A00230970248
:1004A00000009382A2B993E2120073905230EFF0F1
:1004B0001FE397020000938282DC73901234730072
:1004C00020309C4513F7070113F8F70001C7D84106
:1004D0003368E80083D5050013F7F50F39C31841D9
:1004E0008146854E3D4F930F800293028004214E3A
:1004F0003396DE00B3F8C500631116039398260007
:1005000033131F011343F3FF3377E300B3181801CC
:1005100033E7E800639FF70550C98506E39AC6FDF7
:1005200018C11307F00F6375B70454412146854E77
:100530003D4F930F800293028004414EB398CE004A
:1005400033F715016392E8021317260001173313DE
:10055000EF001343F3FFB376D3003317E800D98ECF
:10056000639DF701232A15010506E319C6FD54C151
:100570008280E39457FA10C94DB7E39757FE2328BA
:100580001501DDB70CC982804CC98280B7070020F5
:1005900023A4A7008280B707002093878700944395
:1005A0000347050089E683472500920731A8944355
:1005B00005466391C604834725000346150092074C
:1005C0006314D60093E707F8B7E600E093F7F70F58
:1005D000BA962380F6408546935757003397E60036
:1005E0005441ADC6938707048A07B7E600E0B69783
:1005F00098C382808C4389466393D5028346150055
:10060000834725006365D6008A06B69779BF93862F
:10061000E6038A06B69793F7F70F920765B79043FC
:100620008D46631ED600834615008347250063640C
:10063000D6008606D9BF9386C6078606E1BF9443D7
:100640009147E39AF6F88347150085B79387070625
:1006500061BF99C5371702401C4F5D8D08CF82805E
:10066000B7170240984F1345F5FF798D88CF8280E8
:1006700099C5371702405C4F5D8D48CF8280B71710
:100680000240D84F1345F5FF798DC8CF828083573C
:10069000050037370140130707C0C207C183630055
:1006A000E50237070040630CE500130707406308C5
:1006B000E50037170040130707806317E50003D7ED
:1006C000250093F7F7F8D98F03D7650093F7F7CF95
:1006D000C207C183D98F2310F50083D745002316A5
:1006E000F50283D705002314F502B737014093873D
:1006F00007C06316F50083C785002318F5028547F8
:10070000231AF50082808357050091C593E71700EF
:100710002310F5008280C207C183F99BC207C18301
:10072000C5BF8357C50009C6DD8D2316B50082807D
:1007300093C5F5FFFD8DD5BF93C5F5FFC205C181FA
:100740002318B5008280B70700209387C70198431C
:10075000636FA702D043B386C7006316D500544128
:100760003E85B296D4C35041B306C500631CD70082
:10077000B706002083A6C6006306D700544318437B
:10078000B29654C118C16303F50088C38280BA874A
:100790007DBF79712AC606D622D426D24AD04ECE43
:1007A00052CCEF00D003370600208327C600B706DF
:1007B00000201306C600938606013245A9EF3707CD
:1007C00000209307070693F577001307070681C5F6
:1007D00013877700619BB70500209385C50123A28D
:1007E000050098C18D65938585BFAE97E19B23A2D7
:1007F000070023A00700B385E7401CC21CC3B7074E
:10080000002023ACB700B707002023AAB700B70722
:1008100000804CC39CC203AA0600B377AA00DDEF98
:1008200055CD9307850013F7770019C3E19BA10706
:10083000D5C7370700200329470193094701636F94
:10084000F908370700200324C7011307C7015440E4
:1008500063F4F6000C409DE91042630186081040E5
:10086000044310C33387F640C14663F7E6023305FD
:10087000F4009376750091CEB7E700E01307000708
:10088000B8C30F00F00F0F10000001A022872E84C4
:100890007DBF58C15CC0453D544037070020130759
:1008A00087011043B307D94023A0F90063F3C700C1
:1008B0001CC3B367DA00A1045CC023200400EF006E
:1008C000B00793F7740089CFB7E700E0130700077C
:1008D000B8C30F00F00F0F10000001A08144C5B78E
:1008E000B2502254268502599254F249624A456117
:1008F000828025CDB70700200327C5FF83A7070106
:10090000B376F70099EAB7E700E013070007B8C32A
:100910000F00F00F0F10000001A0832685FF99CA79
:10092000B7E700E013070007B8C30F00F00F0F1080
:10093000000001A0411193C7F7FF06C622C4F98F3A
:10094000232EF5FE2A84612DB707002093874701E7
:100950000327C4FF9443130584FF369798C3E533F8
:100960002244B24041016F00207D828003A7418074
:10097000FD57630CF700B7E700E013070007B8C3A3
:100980000F00F00F0F10000001A0B7E700E0130701
:100990000007B8C30F00F00F0F10000001A0B7E769
:1009A00000E013070007B8C30F00F00F0F1000009E
:1009B000938741809843050798C3828013874180BD
:1009C0001C4399EBB7E700E013070007B8C30F001B
:1009D000F00F0F10000001A0FD171CC389E7B7E757
:1009E00000E023A007048280232EB5FEB707002075
:1009F00083A70700130585F710D52320F508B7173F
:100A000000009387C7965CC182805D7122DE3ED272
:100A100086C696C49AC29EC02ADC2EDA32D836D652
:100A20003AD442D046CE72CC76CA7AC87EC637E473
:100A300000E0930700073CC00F00F00F0F1000000C
:100A40007D2301C591672320F420B7E700E0371527
:100A5000004023A00704854513050580F139725431
:100A6000B640A642164386436255D2554256B25608
:100A7000225792570258F248624ED24E424FB24F1E
:100A8000616173002030411106C6A93AB24023A229
:100A9000018041018280411106C6F537B7E700E0C9
:100AA00041572387E740116723A0E72823A0E710D9
:100AB00073000000B2400145410182800000000047
:100AC000130181F706C20AC412C816CA1ACC1ECE78
:100AD00022D026D22AD42ED632D836DA3ADC3EDEDE
:100AE000C2C0C6C2CAC4CEC6D2C8D6CADACCDECE4E
:100AF000E2D0E6D2EAD4EED6F2D8F6DAFADCFEDEBE
:100B0000F322003016C197F2FF1F83A2E25123A007
:100B10002200F322103416C3B7E700E013070007E2
:100B2000B8C30F00F00F0F100000EF00007DB7E713
:100B300000E023A00704B7E700E0116723A0E7283F
:100B400017F1FF1F0321414E02419A427390123464
:100B50008A427390023092404242D2426243F24350
:100B6000025492542255B2554256D2566257F25709
:100B7000064896482649B649464AD64A664BF64B39
:100B8000065C965C265DB65D465ED65E665FF65F89
:100B900013018108730020301300000013000000CF
:100BA00013000000130000001300000013000000F9
:100BB00013000000130000001300000013000000E9
:100BC000B7E700E023A00704F32720342147639C04
:100BD000E70417F1FF1F0321214502419A42739058
:100BE00012348A427390023092404242D2426243AF
:100BF000F243025492542255B2554256D25662578D
:100C0000F257064896482649B649464AD64A664BA0
:100C1000F64B065C965C265DB65D465ED65E665F0C
:100C2000F65F130181087300203001A0FDBF0000B2
:100C300000000000000000000000000000000000B4
:100C400000000000000000000000000000000000A4
:100C500000000000000000000000000000009307FA
:100C600085007D575CC118C55CC51CC923200500E3
:100C700082802328050082805C419847DCC198C5AA
:100C800098474CC38CC71C4188C985071CC182800A
:100C90009841FD5693078500631ED7001C49D84331
:100CA000D8C10CC79CC5CCC31C4188C985071CC1D1
:100CB0008280B687D4439042E37DC7FECDB75441CE
:100CC00018451C4998C654C3D4436393A600D8C39F
:100CD0002328050088437D1588C3828037070020BC
:100CE000130787021C4394439387C18481E67D5791
:100CF00098C382801843584758475843D5BF7971E5
:100D000026D2B70400204ECE9389440222D44AD082
:100D10002A8403A9818503A509002EC606D61105DC
:100D2000793F7D5793874402B2456311E40299CD20
:100D300083A509002254B25092540259F249373522
:100D4000002091051305C5CE45613DB798434A94EF
:100D500040C3637F2401370700200325C7022254C4
:100D60008C43B25092540259F249910545610DB736
:100D700037070020032587028C439105113F938795
:100D8000C18498436373E40080C3B25022549254E8
:100D90000259F2494561828079714AD013192600BF
:100DA0005AC82A8B4A8526D252CC56CA5EC606D667
:100DB00022D44ECE2E8AB68BBA84BE8AD93A630D1F
:100DC0000518AA8913058006E9322A8463040518E8
:100DD000232835034A864E859305500AEFF04FB617
:100DE000832904038147C1463307FA00030707003C
:100DF0003306F400230AE60201C78507E396D7FE0F
:100E0000A30104048D4763F397008D44130A440043
:100E100044D464C0528523240404A13D13058401F5
:100E2000893D91477119B3849740232004064E9958
:100E300000C804CC40D02326040423280404232A19
:100E40000404232C0404232E0404230204065E86D7
:100E5000DA85137589FF493E08C063840A0023A020
:100E60008A00353EB7070020938707039843B704ED
:100E7000002037350020050798C313874402184324
:100E800093844402930905C6138941856318070CAE
:100E900080C0984385476313F706130505C6C13321
:100EA000138549016D3B13858902553B1385C903A1
:100EB0007D3337350020130B05CB130505CB4533A8
:100EC00037350020930A45CC130545CC493B3735CF
:100ED0000020130585CD613337350020130505D07B
:100EE000BD3B373500201305C5CE953BB707002025
:100EF00023A46703B707002023A657039387018421
:100F000098434854050798C3938741849843637373
:100F1000A70088C3D1473305F502D2854E95A93B7A
:100F2000713C83270900054599CB9C40D8575C54F8
:100F30006377F700B7E700E0116723A0E720B2501E
:100F4000225492540259F249624AD24A424BB24B5D
:100F5000456182804E85713A7D55D5B7832709005A
:100F6000D1FF9C40D8575C54E3EAE7F880C079B7DA
:100F7000B7150000371500004111938781840147A0
:100F8000814613060008938505391305252906C6F1
:100F9000213585476315F502B7E700E01307000721
:100FA000B8C30F00F00F0F1000007D5723A6E18497
:100FB00023AAA184B24023AC01844101E9BCFD57BE
:100FC000631CF500B7E700E013070007B8C30F0084
:100FD000F00F0F10000001A0B24041018280B7075E
:100FE00000209387C7039843050798C38280B707FB
:100FF000002083A7C703797106D622D426D24AD00F
:101000004ECE52CC56CA5AC85EC662C466C2639CF3
:1010100007109387818503AA0700050A23A04701CB
:1010200063110A04B7070020938787029843184387
:1010300019CBB7E700E013070007B8C30F00F00FA4
:101040000F10000001A0370700201307C7029443C8
:10105000104390C314C3938701859843050798C331
:10106000B5399387C1849C43B7340020B70A002068
:101070009389C184938404C6938A4A0201446370AD
:10108000FA0483A70A005147DC57B387E702BE94EE
:101090009840854763F3E700054483A7C18591C362
:1010A00005442285B250225492540259F249624AB0
:1010B000D24A424BB24B224C924C45618280B70BD4
:1010C0000020D14C93878B029843184309E7FD57C2
:1010D00023A0F9007DB79C43DC4703A9C700832701
:1010E0004900E367FAFE130B49005A85C93E83277E
:1010F000890281C713058901D93693874184032565
:10110000C90298436373A70088C333059503DA8542
:1011100026959D3683A70A000327C902DC57E3639F
:10112000F7FA054445B7B70700209387870398432C
:101130000144050798C395B7397122DC37040020B4
:101140001304C4031C4006DE26DA4AD84ED652D415
:1011500056D25AD05ECE99EBB7E700E013070007EE
:10116000B8C30F00F00F0F10000001A0EFF03F8395
:101170001C40FD171CC01C408DC301452AC6EFF062
:10118000FF83F25062543245D2544259B259225A26
:10119000925A025BF24B21618280B707002083A73D
:1011A0000703E1DFB734002037390020014493847E
:1011B00084CD130909C6514AB70A0020854B91A076
:1011C000DC44C04713058401DD3C930544002E85B3
:1011D0002EC6F5349387418448549843B2456373CF
:1011E000A70088C3330545034A95793493874A029B
:1011F0009C435854DC576366F7009387C18523A04E
:1012000077019C40D5FF11C0D13CB7070020138760
:10121000870304431384870381CC8549C93B09C5EF
:101220009387C18523A03701FD14EDF82320040026
:1012300083A7C185B9D3B7E700E0116723A0E720F2
:1012400005452DBF19E5B7E700E0116723A0E720AA
:101250008280B707002083A7C70399CBB7E700E0D8
:1012600013070007B8C30F00F00F0F10000001A014
:10127000011106CE2AC6A5333245814549346D3D5C
:1012800011E5B7E700E0116723A0E720F240056110
:101290008280011122CC373400204EC652C406CEC3
:1012A00026CA4AC8B7090020130404D0370A002010
:1012B000938449039C40EDDF1D3303290400AD3DB9
:1012C000E30809FEEFF0AFED5C4403A9C700130586
:1012D0004900EFF0DF9E13070A031C43FD171CC3F0
:1012E0009C40FD179CC0EFF06FED03250903EFF064
:1012F0004FE04A85EFF0EFDF65BFB707002003A797
:10130000C7039387C18501C7054798C3828023A07F
:10131000070013874184184313864184B7370020A0
:101320005148938707C6B3060703B385D7008841A2
:1013300015C5C841A106BE964841C8C16314D50071
:101340005441D4C1D146B306D702B697DC43D44743
:10135000B707002023A2D70218C2828019EBB7E793
:1013600000E013070007B8C30F00F00F0F100000D4
:1013700001A07D174DBF00007461736B325F746113
:10138000736B00007461736B315F7461736B000089
:0813900049444C450000000037
:0813980088180000AAAAAAAA05
:00000001FF
